{
  "transactions": [
    {
      "hash": "0xdf729e18e1af29ea1af2da49c4eea90a5c874f3c6871d6ccf5b2b0cdef728a25",
      "transactionType": "CALL",
      "contractName": null,
      "contractAddress": "0xb8d2eab5961084a95b901131b55051425e614581",
      "function": "verifyNetworkInference((bytes,(uint256,uint256[],uint256[],uint256,uint256,bytes),bytes))",
      "arguments": [
        "(0x2096404dc1871ad8b83954814347275cf9d974aeb8aa7ca628d6d19fea30678a6105dfc48d44b8b741a7b308c193947578b21cfdd9a3472859c040bb4b611d1a1b, (123456789012345678, [15870000000000000000, 97720000000000000000], [1000000000000000000, 2000000000000000000], 1747176324, 1, 0x), 0x)"
      ],
      "transaction": {
        "from": "0x9ce2a03a7a258fb96d04afb8dd84b69a748b5959",
        "to": "0xb8d2eab5961084a95b901131b55051425e614581",
        "value": "0x0",
        "input": "0x760dbc470000000000000000000000000000000000000000000000000000000000000020000000000000000000000000000000000000000000000000000000000000006000000000000000000000000000000000000000000000000000000000000000e0000000000000000000000000000000000000000000000000000000000000028000000000000000000000000000000000000000000000000000000000000000412096404dc1871ad8b83954814347275cf9d974aeb8aa7ca628d6d19fea30678a6105dfc48d44b8b741a7b308c193947578b21cfdd9a3472859c040bb4b611d1a1b0000000000000000000000000000000000000000000000000000000000000000000000000000000000000000000000000000000000000001b69b4ba630f34e00000000000000000000000000000000000000000000000000000000000000c00000000000000000000000000000000000000000000000000000000000000120000000000000000000000000000000000000000000000000000000006823cb84000000000000000000000000000000000000000000000000000000000000000100000000000000000000000000000000000000000000000000000000000001800000000000000000000000000000000000000000000000000000000000000002000000000000000000000000000000000000000000000000dc3d90eac97300000000000000000000000000000000000000000000000000054c232e41db2c000000000000000000000000000000000000000000000000000000000000000000020000000000000000000000000000000000000000000000000de0b6b3a76400000000000000000000000000000000000000000000000000001bc16d674ec8000000000000000000000000000000000000000000000000000000000000000000000000000000000000000000000000000000000000000000000000000000000000",
        "nonce": "0x60d4",
        "chainId": "0xe9ac0ce"
      },
      "additionalContracts": [],
      "isFixedGasLimit": false
    }
  ],
  "receipts": [
    {
      "status": "0x1",
      "cumulativeGasUsed": "0x3a98",
      "logs": [
        {
          "address": "0xb8d2eab5961084a95b901131b55051425e614581",
          "topics": [
            "0x67988a57968d05ff92430e53e6e766fa9aff659c741d85f0797f84c09526eef2"
          ],
          "data": "0x00000000000000000000000000000000000000000000000001b69b4ba630f34e000000000000000000000000000000000000000000000000000000006823cb84000000000000000000000000000000000000000000000000000000000000000100000000000000000000000000000000000000000000000000000000000000800000000000000000000000000000000000000000000000000000000000000000",
          "blockHash": "0x87ac6fea305c2fc3f72639c243fc379f2f884fb8a24b1d5c0bbaf5dafb10ffb6",
          "blockNumber": "0x16b0ccfd",
          "transactionHash": "0xdf729e18e1af29ea1af2da49c4eea90a5c874f3c6871d6ccf5b2b0cdef728a25",
          "transactionIndex": "0x0",
          "logIndex": "0x0",
          "removed": false
        }
      ],
      "logsBloom": "0x00000000000000000000000000000000000000000000004000000000000000000000000000000010000000000000000000000002000000000000000000000000000000000000000800000000000000000000000000000200000000000000000000000000000000000000000000000000000000000000000000000080000000000000000000000000000000000000000000000000000000000000000000000000000000000000000000000000000000000000000000000000000000000000000000000000000000000000000000000000000000000000000000000000000000000000000000000000000000000000000000000000000000000000000000000000",
      "type": "0x2",
      "transactionHash": "0xdf729e18e1af29ea1af2da49c4eea90a5c874f3c6871d6ccf5b2b0cdef728a25",
      "transactionIndex": "0x0",
      "blockHash": "0x87ac6fea305c2fc3f72639c243fc379f2f884fb8a24b1d5c0bbaf5dafb10ffb6",
      "blockNumber": "0x16b0ccfd",
      "gasUsed": "0x3a98",
      "effectiveGasPrice": "0x5d2aecc11d6",
      "from": "0x9ce2a03a7a258fb96d04afb8dd84b69a748b5959",
      "to": "0xb8d2eab5961084a95b901131b55051425e614581",
      "contractAddress": null,
      "root": "0x56e81f171bcc55a6ff8345e692c0f86e5b48e01b996cadc001622fb5e363b421",
      "scheduledChildTransactionHashes": [],
      "scheduledParentTransactionHashes": []
    }
  ],
  "libraries": [],
  "pending": [],
  "returns": {},
  "timestamp": 1747176698,
  "chain": 245022926,
  "commit": "1716a19"
}