{
  "transactions": [
    {
      "hash": "0x4bbc6b755201cb3fa1aca427a036dadd7fde7244f44a3f9112af7e50cfd838e8",
      "transactionType": "CALL",
      "contractName": null,
      "contractAddress": "0xb8d2eab5961084a95b901131b55051425e614581",
      "function": "addDataProvider(address)",
      "arguments": [
        "0x9CE2A03A7a258fB96d04Afb8Dd84b69A748B5959"
      ],
      "transaction": {
        "from": "0x9ce2a03a7a258fb96d04afb8dd84b69a748b5959",
        "to": "0xb8d2eab5961084a95b901131b55051425e614581",
        "value": "0x0",
        "input": "0x50910ad60000000000000000000000009ce2a03a7a258fb96d04afb8dd84b69a748b5959",
        "nonce": "0x60d6",
        "chainId": "0xe9ac0ce"
      },
      "additionalContracts": [],
      "isFixedGasLimit": false
    },
    {
      "hash": "0x3410d8d1763965bf0e981c0830c14015843d400b66a787077ee2136210fb1e20",
      "transactionType": "CALL",
      "contractName": null,
      "contractAddress": "0xb8d2eab5961084a95b901131b55051425e614581",
      "function": "verifyNetworkInference((bytes,(uint256,uint256[],uint256[],uint256,uint256,bytes),bytes))",
      "arguments": [
        "(0x5df5d82e8b181b67c07355005481525ad4ae94968ad427d4a2bf794fc26d7db54d0e4a884e1451644c0e5c749293c79554737501525d61d209d0be1a159fd7391b, (123456789012345678, [15870000000000000000, 97720000000000000000], [1000000000000000000, 2000000000000000000], 1747205638, 1, 0x), 0x)"
      ],
      "transaction": {
        "from": "0x9ce2a03a7a258fb96d04afb8dd84b69a748b5959",
        "to": "0xb8d2eab5961084a95b901131b55051425e614581",
        "value": "0x0",
        "input": "0x760dbc470000000000000000000000000000000000000000000000000000000000000020000000000000000000000000000000000000000000000000000000000000006000000000000000000000000000000000000000000000000000000000000000e0000000000000000000000000000000000000000000000000000000000000028000000000000000000000000000000000000000000000000000000000000000415df5d82e8b181b67c07355005481525ad4ae94968ad427d4a2bf794fc26d7db54d0e4a884e1451644c0e5c749293c79554737501525d61d209d0be1a159fd7391b0000000000000000000000000000000000000000000000000000000000000000000000000000000000000000000000000000000000000001b69b4ba630f34e00000000000000000000000000000000000000000000000000000000000000c000000000000000000000000000000000000000000000000000000000000001200000000000000000000000000000000000000000000000000000000068243e06000000000000000000000000000000000000000000000000000000000000000100000000000000000000000000000000000000000000000000000000000001800000000000000000000000000000000000000000000000000000000000000002000000000000000000000000000000000000000000000000dc3d90eac97300000000000000000000000000000000000000000000000000054c232e41db2c000000000000000000000000000000000000000000000000000000000000000000020000000000000000000000000000000000000000000000000de0b6b3a76400000000000000000000000000000000000000000000000000001bc16d674ec8000000000000000000000000000000000000000000000000000000000000000000000000000000000000000000000000000000000000000000000000000000000000",
        "nonce": "0x60d7",
        "chainId": "0xe9ac0ce"
      },
      "additionalContracts": [],
      "isFixedGasLimit": false
    }
  ],
  "receipts": [
    {
      "status": "0x1",
      "cumulativeGasUsed": "0x2710",
      "logs": [
        {
          "address": "0xb8d2eab5961084a95b901131b55051425e614581",
          "topics": [
            "0x8042bd7385daff8fe89536683f5922dcaf1d14b07486b217e068aebd9f5e7b8b"
          ],
          "data": "0x0000000000000000000000009ce2a03a7a258fb96d04afb8dd84b69a748b5959",
          "blockHash": "0xda3cd4445bd6f537737477252a9e2e5b8839756e51f9f6eda483b528be279324",
          "blockNumber": "0x16b1eee9",
          "transactionHash": "0x4bbc6b755201cb3fa1aca427a036dadd7fde7244f44a3f9112af7e50cfd838e8",
          "transactionIndex": "0x0",
          "logIndex": "0x0",
          "removed": false
        }
      ],
      "logsBloom": "0x00000000000000000000000000000000000000000004000000000000000000000000000000000010000000000000000000000000000000000000000000000000000000000000000000000000000000000000000000000200000000000000000000000000000000000000000000000000000000000008000000000080000000000000000000000000000000000000000000000000000000000000000000000100000000000000000000000000000000000000000000000000000000000000000000000000000000000000000000000000000000000000000000000000000000000000000000000000000000000000000000000000000000000000000000000000",
      "type": "0x2",
      "transactionHash": "0x4bbc6b755201cb3fa1aca427a036dadd7fde7244f44a3f9112af7e50cfd838e8",
      "transactionIndex": "0x0",
      "blockHash": "0xda3cd4445bd6f537737477252a9e2e5b8839756e51f9f6eda483b528be279324",
      "blockNumber": "0x16b1eee9",
      "gasUsed": "0x2710",
      "effectiveGasPrice": "0x5c67f6aefb0",
      "from": "0x9ce2a03a7a258fb96d04afb8dd84b69a748b5959",
      "to": "0xb8d2eab5961084a95b901131b55051425e614581",
      "contractAddress": null,
      "root": "0x56e81f171bcc55a6ff8345e692c0f86e5b48e01b996cadc001622fb5e363b421",
      "scheduledChildTransactionHashes": [],
      "scheduledParentTransactionHashes": []
    },
    {
      "status": "0x1",
      "cumulativeGasUsed": "0x3a98",
      "logs": [
        {
          "address": "0xb8d2eab5961084a95b901131b55051425e614581",
          "topics": [
            "0x67988a57968d05ff92430e53e6e766fa9aff659c741d85f0797f84c09526eef2"
          ],
          "data": "0x00000000000000000000000000000000000000000000000001b69b4ba630f34e0000000000000000000000000000000000000000000000000000000068243e06000000000000000000000000000000000000000000000000000000000000000100000000000000000000000000000000000000000000000000000000000000800000000000000000000000000000000000000000000000000000000000000000",
          "blockHash": "0x5c1449b81dd62fbde3726a84f6421f23271a971ac85029fb5ea59a6bae42337b",
          "blockNumber": "0x16b1ef45",
          "transactionHash": "0x3410d8d1763965bf0e981c0830c14015843d400b66a787077ee2136210fb1e20",
          "transactionIndex": "0x0",
          "logIndex": "0x0",
          "removed": false
        }
      ],
      "logsBloom": "0x00000000000000000000000000000000000000000000004000000000000000000000000000000010000000000000000000000002000000000000000000000000000000000000000800000000000000000000000000000200000000000000000000000000000000000000000000000000000000000000000000000080000000000000000000000000000000000000000000000000000000000000000000000000000000000000000000000000000000000000000000000000000000000000000000000000000000000000000000000000000000000000000000000000000000000000000000000000000000000000000000000000000000000000000000000000",
      "type": "0x2",
      "transactionHash": "0x3410d8d1763965bf0e981c0830c14015843d400b66a787077ee2136210fb1e20",
      "transactionIndex": "0x0",
      "blockHash": "0x5c1449b81dd62fbde3726a84f6421f23271a971ac85029fb5ea59a6bae42337b",
      "blockNumber": "0x16b1ef45",
      "gasUsed": "0x3a98",
      "effectiveGasPrice": "0x5c67f6aefb0",
      "from": "0x9ce2a03a7a258fb96d04afb8dd84b69a748b5959",
      "to": "0xb8d2eab5961084a95b901131b55051425e614581",
      "contractAddress": null,
      "root": "0x56e81f171bcc55a6ff8345e692c0f86e5b48e01b996cadc001622fb5e363b421",
      "scheduledChildTransactionHashes": [],
      "scheduledParentTransactionHashes": []
    }
  ],
  "libraries": [],
  "pending": [],
  "returns": {},
  "timestamp": 1747206046,
  "chain": 245022926,
  "commit": "a6ea2b0"
}